{
  "contractName": "TweetRegistry",
  "abi": [
    {
      "inputs": [],
      "payable": false,
      "stateMutability": "nonpayable",
      "type": "constructor"
    },
    {
      "constant": false,
      "inputs": [
        {
          "name": "name",
          "type": "string"
        },
        {
          "name": "accountAddress",
          "type": "address"
        }
      ],
      "name": "register",
      "outputs": [
        {
          "name": "result",
          "type": "int256"
        }
      ],
      "payable": false,
      "stateMutability": "nonpayable",
      "type": "function"
    },
    {
      "constant": true,
      "inputs": [],
      "name": "getNumberOfAccounts",
      "outputs": [
        {
          "name": "numberOfAccounts",
          "type": "uint256"
        }
      ],
      "payable": false,
      "stateMutability": "view",
      "type": "function"
    },
    {
      "constant": true,
      "inputs": [
        {
          "name": "name",
          "type": "string"
        }
      ],
      "name": "getAddressOfName",
      "outputs": [
        {
          "name": "addr",
          "type": "address"
        }
      ],
      "payable": false,
      "stateMutability": "view",
      "type": "function"
    },
    {
      "constant": true,
      "inputs": [
        {
          "name": "addr",
          "type": "address"
        }
      ],
      "name": "getNameOfAddress",
      "outputs": [
        {
          "name": "name",
          "type": "string"
        }
      ],
      "payable": false,
      "stateMutability": "view",
      "type": "function"
    },
    {
      "constant": true,
      "inputs": [
        {
          "name": "id",
          "type": "uint256"
        }
      ],
      "name": "getAddressOfId",
      "outputs": [
        {
          "name": "addr",
          "type": "address"
        }
      ],
      "payable": false,
      "stateMutability": "view",
      "type": "function"
    },
    {
      "constant": false,
      "inputs": [],
      "name": "unregister",
      "outputs": [
        {
          "name": "unregisteredAccountName",
          "type": "string"
        }
      ],
      "payable": false,
      "stateMutability": "nonpayable",
      "type": "function"
    },
    {
      "constant": false,
      "inputs": [
        {
          "name": "name",
          "type": "string"
        }
      ],
      "name": "adminUnregister",
      "outputs": [],
      "payable": false,
      "stateMutability": "nonpayable",
      "type": "function"
    },
    {
      "constant": false,
      "inputs": [
        {
          "name": "registrationDisabled",
          "type": "bool"
        }
      ],
      "name": "adminSetRegistrationDisabled",
      "outputs": [],
      "payable": false,
      "stateMutability": "nonpayable",
      "type": "function"
    },
    {
      "constant": false,
      "inputs": [
        {
          "name": "accountAdmin",
          "type": "address"
        }
      ],
      "name": "adminSetAccountAdministrator",
      "outputs": [],
      "payable": false,
      "stateMutability": "nonpayable",
      "type": "function"
    },
    {
      "constant": false,
      "inputs": [],
      "name": "adminRetrieveDonations",
      "outputs": [],
      "payable": false,
      "stateMutability": "nonpayable",
      "type": "function"
    },
    {
      "constant": false,
      "inputs": [],
      "name": "adminDeleteRegistry",
      "outputs": [],
      "payable": false,
      "stateMutability": "nonpayable",
      "type": "function"
    }
  ],
  "bytecode": "0x608060405234801561001057600080fd5b5033600460006101000a81548173ffffffffffffffffffffffffffffffffffffffff021916908373ffffffffffffffffffffffffffffffffffffffff16021790555033600560006101000a81548173ffffffffffffffffffffffffffffffffffffffff021916908373ffffffffffffffffffffffffffffffffffffffff16021790555060006003819055506000600560146101000a81548160ff02191690831515021790555061116a806100c56000396000f3006080604052600436106100af576000357c0100000000000000000000000000000000000000000000000000000000900463ffffffff1680630cc04b55146100b45780631e59c5291461011d578063309e36ef146101ba578063345e3416146101e557806338ec6ba8146101fc5780633af41dc2146102a557806349f0c90d146102bc5780639b6d86d6146102ff578063b2dad25d1461032e578063e79a198f146103ea578063ec43eeb61461047a575b600080fd5b3480156100c057600080fd5b5061011b600480360381019080803590602001908201803590602001908080601f01602080910402602001604051908101604052809392919081815260200183838082843782019150505050505091929192905050506104e7565b005b34801561012957600080fd5b506101a4600480360381019080803590602001908201803590602001908080601f0160208091040260200160405190810160405280939291908181526020018383808284378201915050505050509192919290803573ffffffffffffffffffffffffffffffffffffffff169060200190929190505050610738565b6040518082815260200191505060405180910390f35b3480156101c657600080fd5b506101cf610a87565b6040518082815260200191505060405180910390f35b3480156101f157600080fd5b506101fa610a91565b005b34801561020857600080fd5b50610263600480360381019080803590602001908201803590602001908080601f0160208091040260200160405190810160405280939291908181526020018383808284378201915050505050509192919290505050610b59565b604051808273ffffffffffffffffffffffffffffffffffffffff1673ffffffffffffffffffffffffffffffffffffffff16815260200191505060405180910390f35b3480156102b157600080fd5b506102ba610bee565b005b3480156102c857600080fd5b506102fd600480360381019080803573ffffffffffffffffffffffffffffffffffffffff169060200190929190505050610c81565b005b34801561030b57600080fd5b5061032c600480360381019080803515159060200190929190505050610d1c565b005b34801561033a57600080fd5b5061036f600480360381019080803573ffffffffffffffffffffffffffffffffffffffff169060200190929190505050610d90565b6040518080602001828103825283818151815260200191508051906020019080838360005b838110156103af578082015181840152602081019050610394565b50505050905090810190601f1680156103dc5780820380516001836020036101000a031916815260200191505b509250505060405180910390f35b3480156103f657600080fd5b506103ff610e70565b6040518080602001828103825283818151815260200191508051906020019080838360005b8381101561043f578082015181840152602081019050610424565b50505050905090810190601f16801561046c5780820380516001836020036101000a031916815260200191505b509250505060405180910390f35b34801561048657600080fd5b506104a56004803603810190808035906020019092919050505061105c565b604051808273ffffffffffffffffffffffffffffffffffffffff1673ffffffffffffffffffffffffffffffffffffffff16815260200191505060405180910390f35b6000600460009054906101000a900473ffffffffffffffffffffffffffffffffffffffff1673ffffffffffffffffffffffffffffffffffffffff163373ffffffffffffffffffffffffffffffffffffffff1614806105925750600560009054906101000a900473ffffffffffffffffffffffffffffffffffffffff1673ffffffffffffffffffffffffffffffffffffffff163373ffffffffffffffffffffffffffffffffffffffff16145b15610734576002826040518082805190602001908083835b6020831015156105cf57805182526020820191506020810190506020830392506105aa565b6001836020036101000a038019825116818451168082178552505050505050905001915050908152602001604051809103902060009054906101000a900473ffffffffffffffffffffffffffffffffffffffff16905060206040519081016040528060008152506000808373ffffffffffffffffffffffffffffffffffffffff1673ffffffffffffffffffffffffffffffffffffffff1681526020019081526020016000209080519060200190610687929190611099565b5060006002836040518082805190602001908083835b6020831015156106c2578051825260208201915060208101905060208303925061069d565b6001836020036101000a038019825116818451168082178552505050505050905001915050908152602001604051809103902060006101000a81548173ffffffffffffffffffffffffffffffffffffffff021916908373ffffffffffffffffffffffffffffffffffffffff1602179055505b5050565b60008073ffffffffffffffffffffffffffffffffffffffff166002846040518082805190602001908083835b6020831015156107895780518252602082019150602081019050602083039250610764565b6001836020036101000a038019825116818451168082178552505050505050905001915050908152602001604051809103902060009054906101000a900473ffffffffffffffffffffffffffffffffffffffff1673ffffffffffffffffffffffffffffffffffffffff16141515610822577fffffffffffffffffffffffffffffffffffffffffffffffffffffffffffffffff9050610a81565b60008060008473ffffffffffffffffffffffffffffffffffffffff1673ffffffffffffffffffffffffffffffffffffffff1681526020019081526020016000208054600181600116156101000203166002900490501415156108a6577ffffffffffffffffffffffffffffffffffffffffffffffffffffffffffffffffe9050610a80565b604083511015156108d9577ffffffffffffffffffffffffffffffffffffffffffffffffffffffffffffffffd9050610a7f565b600560149054906101000a900460ff1615610916577ffffffffffffffffffffffffffffffffffffffffffffffffffffffffffffffffc9050610a7e565b826000808473ffffffffffffffffffffffffffffffffffffffff1673ffffffffffffffffffffffffffffffffffffffff1681526020019081526020016000209080519060200190610968929190611099565b50816002846040518082805190602001908083835b6020831015156109a2578051825260208201915060208101905060208303925061097d565b6001836020036101000a038019825116818451168082178552505050505050905001915050908152602001604051809103902060006101000a81548173ffffffffffffffffffffffffffffffffffffffff021916908373ffffffffffffffffffffffffffffffffffffffff1602179055508160016000600354815260200190815260200160002060006101000a81548173ffffffffffffffffffffffffffffffffffffffff021916908373ffffffffffffffffffffffffffffffffffffffff160217905550600360008154809291906001019190505550600090505b5b5b5b92915050565b6000600354905090565b600460009054906101000a900473ffffffffffffffffffffffffffffffffffffffff1673ffffffffffffffffffffffffffffffffffffffff163373ffffffffffffffffffffffffffffffffffffffff161415610b5757600460009054906101000a900473ffffffffffffffffffffffffffffffffffffffff1673ffffffffffffffffffffffffffffffffffffffff166108fc3073ffffffffffffffffffffffffffffffffffffffff16319081150290604051600060405180830381858888f19350505050505b565b60006002826040518082805190602001908083835b602083101515610b935780518252602082019150602081019050602083039250610b6e565b6001836020036101000a038019825116818451168082178552505050505050905001915050908152602001604051809103902060009054906101000a900473ffffffffffffffffffffffffffffffffffffffff169050919050565b600460009054906101000a900473ffffffffffffffffffffffffffffffffffffffff1673ffffffffffffffffffffffffffffffffffffffff163373ffffffffffffffffffffffffffffffffffffffff161415610c7f57600460009054906101000a900473ffffffffffffffffffffffffffffffffffffffff1673ffffffffffffffffffffffffffffffffffffffff16ff5b565b600460009054906101000a900473ffffffffffffffffffffffffffffffffffffffff1673ffffffffffffffffffffffffffffffffffffffff163373ffffffffffffffffffffffffffffffffffffffff161415610d195780600560006101000a81548173ffffffffffffffffffffffffffffffffffffffff021916908373ffffffffffffffffffffffffffffffffffffffff1602179055505b50565b600460009054906101000a900473ffffffffffffffffffffffffffffffffffffffff1673ffffffffffffffffffffffffffffffffffffffff163373ffffffffffffffffffffffffffffffffffffffff161415610d8d5780600560146101000a81548160ff0219169083151502179055505b50565b60606000808373ffffffffffffffffffffffffffffffffffffffff1673ffffffffffffffffffffffffffffffffffffffff1681526020019081526020016000208054600181600116156101000203166002900480601f016020809104026020016040519081016040528092919081815260200182805460018160011615610100020316600290048015610e645780601f10610e3957610100808354040283529160200191610e64565b820191906000526020600020905b815481529060010190602001808311610e4757829003601f168201915b50505050509050919050565b60606000803373ffffffffffffffffffffffffffffffffffffffff1673ffffffffffffffffffffffffffffffffffffffff1681526020019081526020016000208054600181600116156101000203166002900480601f016020809104026020016040519081016040528092919081815260200182805460018160011615610100020316600290048015610f445780601f10610f1957610100808354040283529160200191610f44565b820191906000526020600020905b815481529060010190602001808311610f2757829003601f168201915b5050505050905060206040519081016040528060008152506000803373ffffffffffffffffffffffffffffffffffffffff1673ffffffffffffffffffffffffffffffffffffffff1681526020019081526020016000209080519060200190610fad929190611099565b5060006002826040518082805190602001908083835b602083101515610fe85780518252602082019150602081019050602083039250610fc3565b6001836020036101000a038019825116818451168082178552505050505050905001915050908152602001604051809103902060006101000a81548173ffffffffffffffffffffffffffffffffffffffff021916908373ffffffffffffffffffffffffffffffffffffffff16021790555090565b60006001600083815260200190815260200160002060009054906101000a900473ffffffffffffffffffffffffffffffffffffffff169050919050565b828054600181600116156101000203166002900490600052602060002090601f016020900481019282601f106110da57805160ff1916838001178555611108565b82800160010185558215611108579182015b828111156111075782518255916020019190600101906110ec565b5b5090506111159190611119565b5090565b61113b91905b8082111561113757600081600090555060010161111f565b5090565b905600a165627a7a72305820cb96b79c60f2993bb4a1e786b5f137870366d22e0e8cac14db8aa5f820464e2b0029",
  "source": "/*\ndecentralized microblogging \nCopyright (C) 2015 Jahn Bertsch\n\nThis program is free software: you can redistribute it and/or modify\nit under the terms of the GNU General Public License as published by\nthe Free Software Foundation in version 3.\n\nThis program is distributed in the hope that it will be useful,\nbut WITHOUT ANY WARRANTY; without even the implied warranty of\nMERCHANTABILITY or FITNESS FOR A PARTICULAR PURPOSE.  See the\nGNU General Public License for more details.\n\nYou should have received a copy of the GNU General Public License\nalong with this program.  If not, see <http://www.gnu.org/licenses/>.\n*/\n\n// \"class\" TweetRegistry\ncontract TweetRegistry {\n\t\n\t// mappings to look up account names, account ids and addresses\n\tmapping (address => string) _addressToAccountName;\n\tmapping (uint => address) _accountIdToAccountAddress;\n\tmapping (string => address) _accountNameToAddress;\n\t\n\t// might be interesting to see how many people use the system\n\tuint _numberOfAccounts;\n\t\n\t// owner\n\taddress _registryAdmin;\n\t\n\t// allowed to administrate accounts only, not everything\n\taddress _accountAdmin;\n\t\n\t// if a newer version of this registry is available, force users to use it\n\tbool _registrationDisabled;\n\n\tfunction TweetRegistry() {\n\t\t_registryAdmin = msg.sender;\n\t\t_accountAdmin = msg.sender; // can be changed later\n\t\t_numberOfAccounts = 0;\n\t\t_registrationDisabled = false;\n\t}\n\n\tfunction register(string name, address accountAddress) returns (int result) {\n\t\tif (_accountNameToAddress[name] != address(0)) {\n\t\t\t// name already taken\n\t\t\tresult = -1;\n\t\t} else if (bytes(_addressToAccountName[accountAddress]).length != 0) {\n\t\t\t// account address is already registered\n\t\t\tresult = -2;\n\t\t} else if (bytes(name).length >= 64) {\n\t\t\t// name too long\n\t\t\tresult = -3;\n\t\t} else if (_registrationDisabled){\n\t\t\t// registry is disabled because a newer version is available\n\t\t\tresult = -4;\n\t\t} else {\n\t\t\t_addressToAccountName[accountAddress] = name;\n\t\t\t_accountNameToAddress[name] = accountAddress;\n\t\t\t_accountIdToAccountAddress[_numberOfAccounts] = accountAddress;\n\t\t\t_numberOfAccounts++;\n\t\t\tresult = 0; // success\n\t\t}\n\t}\n\t\n\tfunction getNumberOfAccounts() constant returns (uint numberOfAccounts) {\n\t\tnumberOfAccounts = _numberOfAccounts;\n\t}\n\n\tfunction getAddressOfName(string name) constant returns (address addr) {\n\t\taddr = _accountNameToAddress[name];\n\t}\n\n\tfunction getNameOfAddress(address addr) constant returns (string name) {\n\t\tname = _addressToAccountName[addr];\n\t}\n\t\n\tfunction getAddressOfId(uint id) constant returns (address addr) {\n\t\taddr = _accountIdToAccountAddress[id];\n\t}\n\n\tfunction unregister() returns (string unregisteredAccountName) {\n\t\tunregisteredAccountName = _addressToAccountName[msg.sender];\n\t\t_addressToAccountName[msg.sender] = \"\";\n\t\t_accountNameToAddress[unregisteredAccountName] = address(0);\n\t\t// _accountIdToAccountAddress is never deleted on purpose\n\t}\n\t\n\tfunction adminUnregister(string name) {\n\t\tif (msg.sender == _registryAdmin || msg.sender == _accountAdmin) {\n\t\t\taddress addr = _accountNameToAddress[name];\n\t\t\t_addressToAccountName[addr] = \"\";\n\t\t\t_accountNameToAddress[name] = address(0);\n\t\t\t// _accountIdToAccountAddress is never deleted on purpose\n\t\t}\n\t}\n\t\n\tfunction adminSetRegistrationDisabled(bool registrationDisabled) {\n\t\t// currently, the code of the registry can not be updated once it is\n\t\t// deployed. if a newer version of the registry is available, account\n\t\t// registration can be disabled\n\t\tif (msg.sender == _registryAdmin) {\n\t\t\t_registrationDisabled = registrationDisabled;\n\t\t}\n\t}\n\t\n\tfunction adminSetAccountAdministrator(address accountAdmin) {\n\t\tif (msg.sender == _registryAdmin) {\n\t\t\t_accountAdmin = accountAdmin;\n\t\t}\n\t}\n\t\n\tfunction adminRetrieveDonations() {\n\t\tif (msg.sender == _registryAdmin) {\n\t\t\t_registryAdmin.send(this.balance);\n\t\t}\n\t}\n\t\t\t\n\tfunction adminDeleteRegistry() {\n\t\tif (msg.sender == _registryAdmin) {\n\t\t\tsuicide(_registryAdmin); // this is a predefined function, it deletes the contract and returns all funds to the admin's address\n\t\t}\n\t}\n}",
  "sourcePath": "/home/satyam/course/blockchain/twitter/contracts/TweetRegistry.sol",
  "compiler": {
    "name": "solc",
    "version": "0.4.24+commit.e67f0147.Emscripten.clang"
  },
  "schemaVersion": "2.0.1",
  "updatedAt": "2018-11-12T14:33:23.597Z"
}